:020000040800F2
:100000000011002081080008112A00085508000886
:1000100055080008550800085508000800000000B1
:10002000000000000000000000000000710900084E
:1000300055080008000000000D090008F11500082F
:10004000E90A0008E90A0008E90A0008E90A0008C4
:10005000E90A0008E90A0008E90A0008E90A0008B4
:10006000E90A0008E90A0008E90A0008E90A0008A4
:10007000E90A0008E90A0008E90A0008E90A000894
:10008000E90A0008E90A0008E90A0008E90A000884
:10009000E90A0008E90A0008E90A0008E90A000874
:1000A000E90A0008E90A0008E90A0008E90A000864
:1000B000E90A0008E90A0008E90A0008E90A000854
:1000C000E90A0008E90A0008E90A0008E90A000844
:1000D000E90A0008E90A0008E90A0008E90A000834
:1000E000E90A0008E90A0008E90A0008E90A000824
:1000F000E90A0008E90A0008E90A0008E90A000814
:10010000E90A0008E90A0008E90A0008E90A000803
:10011000E90A0008E90A0008E90A0008E90A0008F3
:10012000E90A0008E90A0008E90A0008E90A0008E3
:10013000E90A0008E90A0008E90A0008E90A0008D3
:10014000E90A0008E90A0008E90A0008E90A0008C3
:10015000E90A0008E90A0008E90A0008E90A0008B3
:10016000E90A0008E90A0008E90A0008E90A0008A3
:10017000E90A0008E90A0008E90A0008E90A000893
:08018000E90A0008E90A000881
:1001880053B94AB9002908BF00281CBF4FF0FF31F6
:100198004FF0FF3000F00CB8ADF1080C6DE904CE5B
:1001A80000F008F8DDF804E0DDE9022304B0704748
:1001B800704700BF2DE9F04786468C460846089EE2
:1001C800154674461946002B40F0C2808542B2FAA3
:1001D80082F245D94AB1C2F1200300FA02FC2EFA94
:1001E80003F3954043EA0C0C94404FEA154EA8B22D
:1001F800BCFBFEF8230C0EFB18CC08FB00F943EA05
:100208000C43994528D9EB1808F1FF3704D29945D2
:1002180002D9A8F102072B44A3EB0903A4B2B3FB4C
:10022800FEFC0EFB1C330CFB00F044EA0344A04226
:1002380014D92C190CF1FF3304D2A04202D9ACF125
:1002480002032C44241A43EA07401EB1D440002379
:1002580034607360BDE8F0874746DDE76346F1E741
:1002680092BB431B01214FEA154EAFB2B3FBFEFC14
:10027800200C0EFB1C330CFB07F840EA034398459F
:1002880062D9EB180CF1FF3004D2984502D9ACF1D1
:1002980002002B44A3EB0803A4B2B3FBFEFC0EFB45
:1002A8001C330CFB07F744EA0344A7424ED92C1928
:1002B8000CF1FF3304D2A74202D9ACF102032C445B
:1002C800E41B43EA0040C0E7C2F1200320FA03F12F
:1002D800954090402EFA03F303434FEA154EAFB210
:1002E800B1FBFEFC0EFB1C10190C0CFB07F841EAD5
:1002F8000041884504FA02F422D969180CF1FF304C
:1003080004D2884502D9ACF102002944A1EB0801C6
:100318009BB2B1FBFEFC0EFB1C110CFB07F743EA7A
:1003280001439F420ED9EB180CF1FF3104D29F42D2
:1003380002D9ACF102012B44DB1B41EA004192E7F0
:100348006046E3E76146F7E76046A3E76346B7E739
:10035800834206D916B9002108467BE7C6E900E0C2
:10036800F9E7B3FA83F78FB9834201D3724508D806
:10037800BEEB020460EB030301209C461EB900217A
:1003880068E73846FAE7C6E9004CF8E7C7F1200CF9
:10039800BB4022FA0CF41C432EFA0CF120FA0CF3A1
:1003A800B84001434FEA14490EFA07F5B3FBF9F8D0
:1003B8001FFA84FE09FB18300B0C08FB0EFA43EAFF
:1003C80000439A4502FA07F240D9E31808F1FF30D2
:1003D80004D29A4502D9A8F102002344A3EB0A03E8
:1003E80089B2B3FBF9F809FB183308FB0EFE41EAA2
:1003F80003418E452CD9611808F1FF3304D28E458C
:1004080002D9A8F10203214443EA0040A0FB029864
:10041800A1EB0E014145CE46434602D306D14D45D8
:1004280004D2B9EB020E68EB04030138002EA6D003
:10043800B5EB0E0261EB030101FA0CFC22FA07F39B
:100448004CEA0303F940C6E9003198E74046C5E79E
:100458004346D9E710B5054C204602F058FA00216A
:1004680042F2107001F018FEF6E700BFF6380008F7
:10047800014B1B68184700BF00000020014B1860A3
:10048800704700BF0000002030B585B004460D4617
:1004980010220021684602F0EEFE02238DF8023099
:1004A8002A46044B01932146684601F0DFFF05B058
:1004B80030BD00BF7904000880B505460E461746D2
:1004C800984601F001FE034602F0DEFEDFF81890C0
:1004D800044649F80030424630463946A84754F8A1
:1004E800090000F0DFF900BF08000000064B1A6899
:1004F80042F400721A601A6842F480621A60034B70
:10050800034A1A6000207047003C02405000002057
:100518000024F400034A536823F0020353600020C8
:10052800704700BF002004E0014B036000207047C3
:10053800EC36000830BFFFF7FDBF00BF114B124A71
:100548002DE9F041D518DFF84480013DB5FBF3F5FE
:100558005D430F4B08EB0304013CB4FBF3F403FBCE
:1005680004540E1B07460B49304602F076FE7019FC
:1005780042460021083E02F07EFE3E6704F1080074
:10058800BDE8F08101000000000000000400000048
:1005980004000000E4360008044B99685869884252
:1005A80003D003494FF080520A607047F4020020DC
:1005B80004ED00E070B5264B15469A6A12F0100F4C
:1005C8009A6A14BF1124102412F0080F9A6A18BFEF
:1005D8001224920706460AD5586B9A6A140634D52F
:1005E80019B19A6A22F080029A62132401E06FF02E
:1005F8001500174B9A6A12F0010F9A6A18BF142453
:1006080012F0200F9A6A18BF1524D20602D49B6AEA
:100618009B070AD50E4B5B68190506D5314600F0D5
:1006280019FA10B180F309880224094B9A6A9206D4
:1006380042BF5A6A22F400525A629A6A42F0FF0292
:100648009A6200232B70204670BD6FF01500CCE72E
:1006580000ED00E0134B9A6A12F0007F9A6A14BF0B
:100668001E201D2012F0807F9A6A18BF1F2012F4E6
:10067800002F9A6A18BF212012F4802F9A6A18BF97
:10068800222012F4003F9A6A18BF232012F4803FF8
:100698009A6A6FEA02426FEA12429A6218BF2420ED
:1006A800704700BF00ED00E010B5194B0246986A8C
:1006B8009C6A10F4805F14BF1720162014F4006F92
:1006C8009C6A18BF1820A40509D5986B986A00047D
:1006D80004D51AB19A6A22F400429A6219200C4B86
:1006E8009A6A12F4806F9A6A18BF1A20D2050CD43D
:1006F8009B6A13F4005F18BF1C20054A936A43F4F1
:100708007F43936200230B7010BD1B20F5E700BFE9
:1007180000ED00E0F0B5484B5B688BB00446C3F3CE
:100728000803002585F31188BFF36F8F02F07F401F
:10073800B0F17F4F11D102F00C0008280DD010073E
:100748004CBF0C4601250022033B8DF80720032BE4
:1007580005D8DFE803F0246367602C46F3E700233D
:100768009DF80720CAB902AE04F120072068616825
:10077800324603C20834BC421646F7D1099A002D06
:1007880054D0C2F3080121B96FEA52226FEA42221B
:10079800099202A9184602F031F90BB0F0BD264BB8
:1007A800DA6A9107DBD4DA6A002AD8DBDA6A5200FF
:1007B800D5D55A69A16942F480725A61BFF34F8F47
:1007C800BFF36F8F5A6931F8021C22F480725A61A4
:1007D800BFF34F8FBFF36F8F4DF6027291420AD06D
:1007E8009A6AD2B24AB10DF1070201212046FFF7F9
:1007F800E1FE0346B4E72368B2E79A6A12F47F4F32
:1008080005D00DF107010120FFF74EFFF1E79B6AC4
:10081800B3F5803FA3D3FFF71DFFEAE70DF1070209
:100828000021E3E70DF107010020EDE722F4FF7254
:1008380022F00102ACE700BF00ED00E0024A536974
:1008480043F010035361704700ED00E0EFF30880B8
:10085800EFF3098101B57246FFF75CFF01BD00BFE8
:10086800044800231021C2180133522B82F80013C8
:10087800F9D1704700E100E0102080F311880848A2
:100888004FF40461401880F30988EFF314800221C3
:10089800084380F31488BFF36F8F00F09BF80000C3
:1008A80040030020084B9B6883420BD1EFF305837C
:1008B80043B1064B5A6842F080525A605A6A22F491
:1008C80000425A6201F006BCF402002000ED00E08C
:1008D800094A0A49936809689967094958674B683A
:1008E80043F080534B60002383F31188BFF36F8F6D
:1008F8009368986F704700BFF4020020D43800084E
:1009080000ED00E015498A684FF030001044EFF31D
:10091800098C80E8F01F102080F31288BFF36F8FD6
:100928000F4F4FF000664A698A603E604FF07004CE
:10093800141920680B4C2060506F0023536780F314
:10094800118804B5104600F0EBF8BDE8044002F148
:10095800300090E8F01F8CF309887047F4020020FB
:1009680004ED00E0B80100201EF0040F0CBFEFF307
:100978000880EFF30980816911F8021C0229FFD071
:1009880001B502F03DF801BD40B2002807DB044A7A
:100998004109012300F01F00834042F821307047CD
:1009A80000E100E040B20028A8BF00F1604001F17A
:1009B8000101B8BF064B4FEA0111ACBF00F5614019
:1009C80000F00F00C9B2B4BF195480F80013704783
:1009D80014ED00E00F4A08B50F4B22F07F029A6031
:1009E800BFF34F8FBFF36F8FD3F8882022F47002C4
:1009F800C3F88820EFF3148323F0040383F31488E7
:100A0800BFF36F8F00F0AEFF01F0C4FBFFF728FFC4
:100A180001F004F80000000800ED00E042F8203C76
:100A2800009B42F81C3C0A49019B42F8183C029B77
:100A380042F8143C21F001014FF0807342F8043C65
:100A480042F8081C0023203A02654367704700BF3C
:100A5800C1040008094A0346906870B113F1160FE3
:100A6800006E05D0A0F140029A4205D8834203D215
:100A7800814228BF0020704700207047F402002000
:100A880008B514460A4A0B4B9060026F1A600D466F
:100A980000F046F8204685F30988002163B681F303
:100AA8001188BFF36F8F00220023FFF705FD00BFF9
:100AB800F4020020B8010020014910220A607047A2
:100AC80010ED00E072B6404080F31188BFF36F8FDD
:100AD800BFF34F8F30BF62B6BFF36F8F704700BF51
:100AE80001B5EFF30580A0F110004FEAC0000449FA
:100AF800014409C99847BDE8014002490847000078
:100B080054340008A1050008024B034A0348012198
:100B180000F040B80000022000000020EC36000879
:100B2800026E054B403A1A60044A4021C3E901129B
:100B38001846012100F038B8BC01002000000B1550
:100B4800084AC2F898000B6823F01F03034343F0D8
:100B58001003C2F89C308B6843F00103C2F8A03040
:100B6800704700BF00ED00E0044B0522C3F8942055
:100B7800BFF34F8FBFF36F8F704700BF00ED00E0EA
:100B8800BFF35F8F024B0022C3F89420704700BF69
:100B980000ED00E010B5034C0123227801F04FFF6F
:100BA800207010BD2403002008B5094A00231278DC
:100BB80001F045FF10F1160F03D0064B002207285D
:100BC80000DD08BDC3F89800C3F8A0200130F6E79F
:100BD8002403002000ED00E0F0B5454D2C68082CFA
:100BE80085B000F28280FFF7CBFF00200C268442FC
:100BF8000DD1404D404F2C706846FFF795FC0024FE
:100C08000646A6420AD1FFF7AFFF00201CE069683C
:100C180006FB0011FFF794FF0130E8E7009800EBAE
:100C280004114FEA041CCB683B40B3F5000F4AD0CF
:100C38000CD8B3F5001F30D0B3F5800F38D0B3F51A
:100C4800801F12D06FF0150005B0F0BDB3F1807FA2
:100C580042D0B3F1007FF5D150F80C3088684A686B
:100C680001F0DDFE40F4802009E050F80C3088687F
:100C78004A6801F0D4FE40F0885040F430200390D8
:100C880028780728CDE90123DCD801A9FFF758FF08
:100C98002B7801332B700134B3E750F80C30886897
:100CA8004A6801F0BCFE40F0885040F40020E6E7B6
:100CB80050F80C3088684A6801F0B1FE40F0E060F6
:100CC80040F40030DBE750F80C3088684A6801F0DF
:100CD800A6FE40F08270D2E750F80C3088684A6867
:100CE80001F09DFE40F08870C9E74FF0FF30ABE798
:100CF800F8360008240300200000F0FF08B5024B76
:100D08001B689847002008BDC8010020034B044A0F
:100D18001860937843F0020393707047C80100206D
:100D28000400002008B50649064821F00701C1F172
:100D3800005202F5003201F023FE002008BD00BF7A
:100D480047110020CC0100202DE9F0410F4E104F33
:100D5800054600244FF001082B7853FA84F01F2829
:100D68000DDC726908FA00F333EA020207D17361F5
:100D780057F830301BB107EBC002516898476A78C2
:100D88000134E3B29A42E7D2BDE8F081003C014069
:100D9800D8010020044B184400230133994200F87D
:100DA800012BFADC704700BF5C00002010B4064B32
:100DB800064902460C6818560123934023430B60EA
:100DC80010BCFFF7E1BD00BF5C000020003C014003
:100DD8001F2806DC034901220B68824023EA02032C
:100DE8000B607047003C014003292AD8DFE801F076
:100DF800020E141F134B01229968824021EA020156
:100E08009960D96821EA0202DA6070470D4B012225
:100E1800996882401143F3E70A4B0122D96882405E
:100E28001143D960996821EA02029A607047012348
:100E380003FA00F0034B9A6802439A60DA68104399
:100E4800D8607047003C014030B50A4B53F8304039
:100E58008C4204D103EBC0056D68954205D034B9C6
:100E680043F8301003EBC0035A60002030BD6FF028
:100E78000F00FBE7D8010020034B002243F8302085
:100E880003EBC0035A607047D801002010B51D4B12
:100E980018680B68302B14460BD00DD8013B052B76
:100EA80011D8052B0FD8DFE803F0171F0E0329040C
:100EB80000202060002010BD402B0BD006D8342B1A
:100EC800F7D0382BF5D06FF08500F4E7442B09D024
:100ED800A82BF7E78008ECE700F0A2F84FF4A87316
:100EE800C00858434008E4E700F09AF84FF4A873A4
:100EF800C00858430723B0FBF3F0DAE74FF4FA4091
:100F0800D7E700BF50000020F8B5414C414F00F032
:100F18009DF800F02FFCA3683F4AC3F3031315782C
:100F2800D35C47FA05F520FA03F6AE4202D228460A
:100F380000F04EFC236823F480232360236843F4E5
:100F480080332360324B1A689203FCD55A6F42F003
:100F580001025A675A6F9407FCD59A6802F00C028E
:100F6800082A17D11A68900707D41A6842F00102B4
:100F78001A60274A13689907FCD5254B9A6822F00E
:100F880003029A609A6812F00C0FFBD19A6822F05B
:100F9800F0029A601E4C236823F080732360636814
:100FA80023F440336360636823F0706343F0E063C5
:100FB800636000F039F8236843F080732360236886
:100FC8009B01FCD5A36823F0F003A360A36823F07A
:100FD800030343F00203A3600D4CA36803F00C0362
:100FE800082BFAD1AE4202D3284600F0F1FB0B4B96
:100FF8001F60A36823F4E05343F4A053A360A368DD
:1010080023F4604343F40043A3600020F8BD00BF0D
:1010180000380240007A030A043A00085000002011
:101028000048704700127A00054B06495A6811407B
:10103800054A0A435A605A6822F440325A60704797
:10104800003802400080BFFF08544000064B1A6C6D
:1010580042F080521A641B6C82B003F080530193F3
:10106800019B02B0704700BF0038024008B507482E
:1010780002F02EF838B10648FFF748FE0448FFF79B
:10108800FDF9002008BD6FF01200FBE72C340008C2
:101098009D1000080A2838B5074D044604D1AB68EE
:1010A8000D215B6828469847AB6803485B68E1B246
:1010B8009847204638BD00BF2C34000838B503696E
:1010C80004465860084D284602F002F840B16168AD
:1010D800AB680C311B682846984700EAE07038BDB9
:1010E8006FF01200FBE700BF3C330008F7B5174666
:1010F800B7F5001F466802690C461D4624D101F069
:101108000302043292000F23934043EA9103DAB2B8
:101118003349023251F82220190C02EA134391FA9A
:10112800A1F2B2FA82F2D340B2689A4209D12046BB
:10113800FFF74EFE2046FFF79FFE00212046FFF7EF
:1011480053FE002003B0F0BDB7F5800F41D025490C
:101158002046FFF779FE00283ED1234AB66892E878
:1011680003006B4683E8030020488268194612682A
:101178009047C0B904F0030304339B000F229A4040
:1011880042EA9402D3B29B0003F1804303F59C33F7
:10119800110C986820EA124091FAA1F2B2FA82F290
:1011A800964006439E60B5F1806F0ED0B5F1C06FD2
:1011B8000DD005F17E435942594149002046FFF7B9
:1011C80013FE2046FFF7F2FDBBE70121F6E70321F6
:1011D800F4E76FF08500B5E76FF00F00B2E700BFE6
:1011E800003801402D2E0008E43600083C33000882
:1011F8002DE9F0471E4F044600EBC1060025B44216
:1012080001D1002014E02068C30600F01F0911D4A2
:10121800656845F02005C0F3471AC0F343200A2843
:1012280023D857F82080B8F1000F0DD16FF01200C5
:10123800BDE8F087B9F1100F04D0B9F1110FEAD168
:101248006568E8E73025E6E7404601F041FF0028F9
:10125800ECD04B462A460AF00F01404601F0F9FD52
:10126800002804F10804CADAE2E76FF01500DFE7A6
:10127800F0370008F8B503690C465E6823794168C1
:10128800012B34D09A1E55425541AD026279022A8B
:101298009CBF354F37F812C0A27988BF4FF4005C65
:1012A800042A27D0003B18BF01231B03E279012A37
:1012B8000A680CBF4FF440770027A642D1681CD1BA
:1012C80021F4B05129430B43D360136923F44053ED
:1012D80043EA0C03136143681A68536923F44073A3
:1012E8003B4353613168BDE8F84001F051BE4FF40B
:1012F800C065CBE74FF48053D8E701F4C0618D4255
:101308001FBFD16821F4C0612943D16042681168C8
:101318000A6902F4405294451FBF0A6922F44052F8
:1013280042EA0C020A6142681168CA6802F48052F3
:1013380093421FBFCA6822F480521343CB604368AC
:101348001A68536903F440739F421FBF536923F41B
:1013580040733B43536121683368994203D001F0DD
:1013680017FE23683360F8BDF03800082DE9F04116
:1013780003694768D3F804800B790C46012B497937
:10138800A5793BD1022954D9042D4FD04FF480566A
:101398004FF4C06203238B4248D1002E00F08180B5
:1013A800002A14BF03220422AA423FD1E3798BB159
:1013B800012B3BD13B683D4A93420BD0A2F54C42EE
:1013C800934207D002F58062934203D002F54C4263
:1013D80093422BD13A68D36823F40053D360214653
:1013E800FFF748FF3A68D36843F40053D36094E8A2
:1013F800030088E803000020BDE8F081022B08D133
:10140800022921D9042D11D04FF480624FF480565F
:10141800C0E702290A461FD9042D04D133B94FF475
:1014280080561A46B6E763BB0329BDD06FF0850026
:10143800E2E71F4A042D32F811C0F7D04FF4C0621A
:10144800033B012B10D8F1E7194A042D32F811C0DB
:10145800ECD04FF48062F3E7154A042D32F811C03E
:1014680016D1002BE2D11A464FF48056BCF5805FA6
:1014780013D0BCF5405F12D0BCF1000F8AD1012314
:1014880089E7033B012BD1D90022BFE70022D7E728
:10149800002BFBD11A461E46E8E700237BE7022310
:1014A80079E7002A14BF022203227DE700100140D9
:1014B800F038000873B50669446805462848306066
:1014C80001F006FE18B96FF0120002B070BD306866
:1014D800E16883681B6898470028F6DBE06901AA81
:1014E800002101F0CEFC0028EFDB019B00221979D6
:1014F8001868FFF77DFE0028E7DB6C682B69226817
:101508005E68D36823F40053D360606801F0E0FD9F
:101518000028D8D0D4E901018368DB6803B1984773
:10152800226802F10C0353E8003F43F00C0302F178
:101538000C0040E800310029F3D131462846FFF776
:1015480099FE237D23B12268536943F00803536150
:101558002268D36843F40053D3600020B5E700BF86
:101568003C33000810B54FF0E0230F499C691A6915
:1015780008689B690D4902F4803234B993B903466F
:101588004AB90A681044C01A10BD002B08BF0346A8
:101598000AB9A342F5D90A6802440A604FF0E0226A
:1015A8001269EEE70446F3E7EC020020E8020020A7
:1015B8000A4B102283F82320094B44F2A0121A6028
:1015C800084B002018604FF0E02344F29F125A6144
:1015D80098611A6942F007021A61704700ED00E04D
:1015E800EC020020E802002010B5FFF7BBFF104B0B
:1015F8001049D3E900420868001942F10002C3E922
:1016080000020D4A00230B60D2E9004144F2A01306
:10161800001BB0FBF3F043431B1941F10001C2E981
:10162800003100F099FEBDE81040FEF7B5BF00BFDD
:1016380090000020E8020020880000202DE9F041F9
:10164800DFF8E08099B1421C0BD14FF0E02213691A
:1016580023F0010313614FF07F43C8F80030BDE861
:10166800F081D8F80060012807DC00270BE0431C54
:10167800D8F80060F7D140F2E53040F2E6339842FE
:10168800A8BF1846471E4FF01003EFF3118583F3E8
:101698001288BFF36F8FFFF765FF234C4FF0E023ED
:1016A8009969D4E90023801843F10003C4E90003D1
:1016B8001E4B00221A601E4B1A68831A2ED444F25D
:1016C800A01C0CFB073303F583431F33B3FBFCF764
:1016D800131A0CFB073340F21A42934238BF1346E1
:1016E800144A934228BF13464FF0E022C8F800304E
:1016F800013B90695361002393618142A1EB000390
:10170800D4E9001238BF9B195B1842F10002C4E902
:10171800003285F31188BFF36F8FA0E740F21A43B8
:10172800E2E700BFEC02002090000020E802002061
:10173800880000202094FF0038B54FF01003EFF325
:10174800118583F31288BFF36F8F084B1C68084B11
:101758001B68E41AFFF706FF85F31188BFF36F8F44
:1017680044F2A0132044B0FBF3F038BD90000020F1
:101778008800002008B513498B6803F00C03042B7C
:101788001CD0082B1CD14A684B68496813F48003A5
:1017980014BF0D480D48C1F3881118BF002302F08B
:1017A8003F02A1FB0001FEF7EBFC064B5B68C3F3AD
:1017B800014301335B00B0FBF3F008BD0248FCE7CE
:1017C8000248FAE70038024000127A000024F400C8
:1017D80000285FD0304A136813F480433ED02F4B63
:1017E800984229D82E4B98422CD82E4B98422FD865
:1017F8002D4B984217D9136813F4804F4FF002030A
:1018080039D02A490A6822F007021A430A600A688E
:1018180002F0070293421CBF0A6802F00702981AF6
:1018280018BF01207047224B9842136827D913F438
:10183800804F4FF00103E3E7136813F4804F4FF034
:101848000503DDE7136813F4804F4FF00403D7E76F
:10185800136813F4804F4FF00303D1E71268520462
:10186800CFD4144B124A984294BF002301239042CC
:101878004FEA8303C5D9012B38BF0123C1E75B04B5
:1018880006D40C4B984294BF002001208300B8E78F
:101898000023B6E7012070470070004080D1F008AF
:1018A800000E2707804A5D0500879303003C02402D
:1018B80080C3C901001BB70038B54FF01003EFF320
:1018C800118583F31288BFF36F8F064B9C6801F074
:1018D80013FC85F31188BFF36F8F2046BDE83840AD
:1018E800FEF7E0BFF4020020104B70B553F820401B
:1018F800013053F82060A64200D870BDD4E9003505
:1019080095B153B12846984738B10028B8BF40422E
:10191800EB68FF28A8BFFF201870EA68537843F0E7
:10192800010353700834E6E79847FBE7D838000806
:1019380008B50A4B012203201A70FFF7D5FF00F003
:101948008FFD0420FFF7D0FF00F014F9FEF782FDA9
:10195800034A137B23F00103137308BD25030020FA
:10196800180100200648074A08B5121A002101F09C
:10197800C6FB0548054A0021121A01F0C0FB08BD44
:10198800880000202803002000000010000000103C
:1019980070B5002386B00122CDE90423194E1A4DF3
:1019A80001930F22CDE902321849142303FB005595
:1019B80006EBC01604464FF4C070154B00954FF463
:1019C800A07200FB0411304600F094F8737B114AB2
:1019D800EE6023F0040373734FF4046304FB0333D2
:1019E80013446B600C4B2C74BFF35B8F53E8001FE0
:1019F800013143E80012002AF8D1BFF35B8F06B02B
:101A080070BD00BF98000020F4020020800B002069
:101A18000F31000840030020F002002080B50020AC
:101A2800A6B0FFF761FF2C4B83F308882B4D2C4E93
:101A38006B692C4F43F400736B610024F02385F825
:101A48002230EC772C766C76AC7685F820406B6A81
:101A580043F4E0236B62FEF7F1FEFFF72DF84FF039
:101A6800FF33AB62EB62FFF7B7F8FFF74DF840F2D0
:101A78000113ADF8243006ABB360CDE91E442194C0
:101A880001F025FB0120FFF72FFF0220164DFFF77D
:101A98002BFF00F077FA154B756105930123144964
:101AA8000094CDE903434FF480623B46CDE90144FD
:101AB800284600F01FF86A7B064622F004022846F2
:101AC8006A7301F03EFB2046FFF762FF3A46314653
:101AD8002846FEF7D5FF00BF800B002000ED00E090
:101AE800F40200203919000818010020143A0008EF
:101AF800000D00202DE9F04385B00732994600F12A
:101B0800580322F00706C0E91633109B037306F149
:101B180040050423002743730D440F9B83738846B5
:101B2800C0E9067729468760C7730446FEF706FDB5
:101B380008F140030730C4E9183620F007000E9B6F
:101B4800A06602930D9B01932D1A0C9B00932A46C5
:101B58004B4641462046FEF761FF054B67659B688B
:101B680003B1DB6EE366284605B0BDE8F08300BF2D
:101B7800F402002070B5224C224D86B02646AE42B3
:101B880004F130040AD300F0CDF91D4C1E4EAC42CE
:101B980020D306B0BDE8704000F0D8B954F80C3C2A
:101BA800059354F8103C049354F8143C039354F8E8
:101BB800183C029354F81C3C019354F8203C0093C1
:101BC80054E90A2354E90C01FFF794FF54F8303C18
:101BD8005E65D3E7D4E90A23B3F1FF3F08BFB2F14A
:101BE800FF3F05D052EA0301206803D100F04AF90B
:101BF8003034CCE73146183000F038FBF8E700BF46
:101C0800E4360008E4360008AF310008C3897F2BAA
:101C180012D80A4B1B6863B1094B90F90E201B6858
:101C28009A4209DB437BDB0606D1064BC31A18BF71
:101C3800012303F0010070470023FAE71C0300208A
:101C48001803002098000020044BC01A044BC01051
:101C58005843044B01221A54704700BF98010020D2
:101C6800ABAAAAAA2603002070B50E4B0E4C1E7C08
:101C780006EB460304EBC3040546204601F0ADFA23
:101C88000A4B002228469A55FFF7C0FF48B1084B77
:101C980008491A68013A2046D317BDE8704000F099
:101CA800E5BA70BDF4020020980100202603002048
:101CB8001C030020511C000838B50D4D2B4653F865
:101CC800184F9C4200D004B9EC68AB6838B95A7B0D
:101CD800D20604D1A26912B9DA897F2A05D89C42B2
:101CE80002D02046FFF7C0FF23466B6138BD00BF16
:101CF800F402002070B590F90D20437B002A0146BC
:101D080004DA03F07F03437301F009FA4B7B154AA9
:101D180063F07F0310464B7350F8183FD469834231
:101D280008BF002323B9C1E900042160D1610CE098
:101D380091F90E5093F90E60B5420ED0AE420CDD0B
:101D48005868C1E90030016059609068431A5842E8
:101D5800BDE870405841FFF7AFBF9C42E3D01B6815
:101D6800E0E700BFF402002070B490F90D30427B28
:101D7800002B29DBD30627D183692BBB134962F0DB
:101D88007F0242730A4652F8184F944218BF2346FE
:101D9800CC6923B9C0E900242060C8610CE090F93F
:101DA8000E5093F90E60B5420AD0AE4208DD5A686B
:101DB800C0E900321060586070BC0020FFF77CBF9B
:101DC800A342E7D01B68E4E770BC7047F402002028
:101DD80008B590F90D20437B002A014604DA03F088
:101DE8007F03437301F09BF9044B9868431A5842E8
:101DF8005841BDE80840FFF75FBF00BFF40200206C
:101E080038B54FF01003EFF3118583F31288BFF351
:101E18006F8F104B104A9C681068A04206D1FFF7DC
:101E280023FF85F31188BFF36F8F38BD00211B7C1A
:101E380011600A4AD35C002BF3D02046FFF7E6FE78
:101E48000028EED0637BDB0602D12046FFF752FF65
:101E58002046E4E7F40200201403002026030020B3
:101E680049B9EFF3058030B9054B5A699B689A4226
:101E780001D0FEF72DBD81F31188BFF36F8F704736
:101E8800F402002010B54FF01002EFF3118482F332
:101E98001288BFF36F8F427B510704D484F31188F3
:101EA800BFF36F8F10BD22F004024273FFF75CFF8F
:101EB80021460248BDE81040FFF7D2BF27030020A3
:101EC80070B50446183001F088F94FF01003EFF3AD
:101ED800118683F31288BFF36F8F94F90D20637B0B
:101EE800002A05DA03F07F036373204601F017F92F
:101EF8000B4D637BA86843F010036373031B5842C0
:101F08005841FFF7D9FE86F31188BFF36F8FAB688E
:101F1800A34203D1BDE8704001F055B970BD00BFC0
:101F2800F40200204FF01003EFF3118183F31288BD
:101F3800BFF36F8F044B9A68D37B013BD37381F354
:101F48001188BFF36F8F7047F402002010B54FF06F
:101F58001003EFF3118483F31288BFF36F8F084BDC
:101F68009A68D37B0133D3730020FFF7A5FE84F36F
:101F78001188BFF36F8FBDE8104001F024B900BF8E
:101F8800F4020020024B03F11802C3E9062270474D
:101F9800F4020020F8B54FF01003EFF3118583F336
:101FA8001288BFF36F8F19498868437B03F07F035A
:101FB800437301F0B4F88B685A7B084662F07F02DD
:101FC8005A7350F8182FCC69824208BF002222B9F0
:101FD800C3E900042360CB610CE093F90E6092F929
:101FE8000E70BE420ED0B7420CDD5168C3E9002125
:101FF8000B6053600120FFF75FFE2846BDE8F840FC
:10200800FEF766BCA242E3D01268E0E7F4020020C3
:1020180050EA01032DE9F04105460E4603D1FFF7CA
:10202800B9FF00202CE0831C71F1FF332ADB01F09B
:10203800EAF82C184FF01003EFF3118883F3128895
:10204800BFF36F8F114F124BB8681860FFF7C0FECF
:10205800B86810492A463346183000F007F9BA68BC
:10206800537B43F0100353734046FEF731FC01F0F5
:10207800CAF8201A63EB0303012873F10003D0DBCD
:10208800BDE8F0816FF00104241AD3E7F4020020C0
:1020980014030020AF310008B1F1FF3F08BFB0F1D1
:1020A800FF3F08B506D1074B9868FFF709FF4FF0C7
:1020B800FF3008BDFFF7ACFF0A220023C117FEF767
:1020C8005FF8F6E7F4020020014B9868704700BFFC
:1020D800F40200202DE9F04104464FF01003EFF31D
:1020E800118683F31288BFF36F8F037BD9070BD553
:1020F80086F31188BFF36F8F404080F311884FF04B
:10210800040002DFBDE8F081437B1A0704D586F39B
:102118001188BFF36F8FF5E723F0200242F0080122
:10212800D20920D14173A36813B1204600F0FFFF04
:1021380004F1180001F051F804F158074FF00008B5
:10214800A56DBD4200D0B5B90120FFF7B5FD104B14
:102158009B68A342DBD1EFF30583002BD7D1304630
:10216800FEF7B6FBD3E703F05F0343F008034373BE
:1021780000F0D5FFD7E7284600F0D9FF05F1180091
:1021880001F02BF8C5F878802846FFF7EDFDD7E772
:10219800F402002009480A4A0A4908B5121A00F050
:1021A800B0FF094A09490A4800F0ABFF09480A4A42
:1021B8000A49BDE80840121A00F0A3BF0000002039
:1021C80088000020583A000800000000583A00082B
:1021D800000000200000001000000010E03A000895
:1021E800034B1B680BB9FFF7A7BA0020704700BF65
:1021F8002003002010B50E4B1C689C4204D1FFF749
:10220800EFFF6FF0004010BDFFF7EAFF002CF8D099
:10221800D4E904321B1A62EBE072B3F1004F72F199
:102228000001EEDA002AACBF18460020EBE700BF39
:102238005400002030B570B10B4B5B6898420AD04F
:10224800036843B1D3E90421D0E90445121941EBED
:102258000501C3E90421D0E9003213605A60002364
:10226800C0E9003330BD00BF54000020B3F1FF3F88
:1022780008BFB2F1FF3FF8B504461D4616465CD0CC
:1022880081604FF01003EFF3118783F31288BFF3D7
:102298006F8F013275F1FF3324DA2D49D1E900201F
:1022A8006FF001039B1A4FF0FF3262EB00009E1B98
:1022B80060EB0500012E70F1000301DA0126002011
:1022C800C4E90460234ED6F800C07568B44508BF59
:1022D8004FF0000CBCF1000F0DD1C4E900652C6073
:1022E80074601CE0FFF77CFF013645F100053618E5
:1022F80045EBE070E4E7DCE90420D4E904319342DB
:1023080071EB000E1ADAD21ADCF8043060EB010027
:10231800CCE90420C4E900C31C60CCF8044033684D
:10232800B34206D09C4204D1FFF764FF0021FFF7B7
:1023380085F987F31188BFF36F8FF8BD9B1A61EB9E
:102348000001AC45C4E90431C7D0DCF800C0C1E7DE
:10235800B0010020540000202DE9F84F4FF0100381
:10236800EFF3118C83F31288BFF36F8FDFF8B0A0FF
:10237800DFF8B0902C4FC9F80000DAF8000000240C
:10238800504508BF00200025D7E90021D9F80030C2
:10239800E04680B3D0E9046C4FEAE37EB3427EEBBB
:1023A8000C0B05DAF61A6CEB0E04C0E9046422E0A3
:1023B800B21841EBE671C0E90445C7E90021FFF70F
:1023C80039FF88F31188BFF36F8F836898474FF000
:1023D8001003EFF3118883F31288BFF36F8FD9F8D6
:1023E8000030DAF800009B1B5045C446C9F800309D
:1023F800CAD1D7E900219A1841EBE3730024C7E951
:102408000023C9F80040FFF7F5FE2146FFF716F94B
:1024180088F31188BFF36F8FBDE8F84FFFF7F0BC62
:102428005400002020030020B001002010B54FF018
:102438001003EFF3118483F31288BFF36F8FFFF754
:10244800CFFE064A0346D2E90001181841EBE371B2
:1024580084F31188BFF36F8F10BD00BFB001002057
:10246800014800F054BA00BF193A00082DE9F04FAE
:102478008BB043680193837881469807144640F1EE
:10248800098100250F78002F00F00681252F0BD039
:102498004B1C02930135019B494638469847002852
:1024A800C0F2F2800299EDE74F788B1C252F02933A
:1024B800F0D000239A469846B8F11F0F37D8A7F1F5
:1024C8002002102A0AD8DFE802F02909092F090991
:1024D800092009090927092C09091E00A7F130025A
:1024E800092A32D92A2F36D118F0400F54F8042B74
:1024F8007ED1002AA7BF48F020089246C2F1000A00
:1025080048F0280801E048F00108029A12F8017B17
:102518000292002FD0D130E048F0020848F00408B9
:10252800F3E748F00808F0E748F01008EDE7B8F1DD
:102538007F0F19D8A7F13002092AD3D818F0400F15
:1025480003D00A2101FB0323DFE70A2101FB0A2A42
:1025580048F02008D9E72E2F06D118F0400F40F098
:102568009B8048F04008D0E76C2F2ED028D8682FE1
:1025780033D06A2F39D04C2F37D0002B47F02002A8
:10258800B8BF28F04008A2F16501BCBF1FFA88F85F
:102598000023022901D9612A2CD1073424F0070429
:1025A800A24E0834072718F0080F64D006EB070B73
:1025B800B046D84561D1AE1BB044AAEB070A62E128
:1025C800742FA2D07A2FA0D0D7E718F0800F18BFA9
:1025D80048F4007848F0800897E718F4807F18BF1F
:1025E80048F4007848F480788FE748F420788CE73E
:1025F80013468AE7A7F16301122900F2E080DFE8B9
:1026080011F013004F00DE00DE00DE00DE004F0098
:10261800DE00DE00DE00DE00DE00EE00D900DE00B7
:10262800DE001A00DE00A30054F8043B8DF81C30CD
:10263800012707AEB7E754F8046B7D4A002E08BFA0
:10264800164618F0400F14BF19464FF0FF313046B8
:1026580000F0DDFD0746A6E7019B49462020984784
:10266800002811DB08F1FF384745F5D35544A5EBA1
:102678000805C2469AE7D046F6E718F8010B019B11
:1026880049469847002894DA99F8023043F0040341
:1026980089F802304FF0FF3528460BB0BDE8F08FBF
:1026A80018F0800F2ED018F4007F1BBF073424F0D9
:1026B800070454F8040B54F8080B28F010060028F7
:1026C800B6B22ADA404246F4806603930DF11C083C
:1026D8000A22414600F0A7FD7206039BA0EB0808FA
:1026E80053D526F00101434589B240F39380002F6A
:1026F80000F08B8016F01002039240F08D809B460C
:102708000E4616E018F4807F54F8040BD5D018F460
:10271800007F14BF40B200B2CFE7D6D118F0400F07
:10272800D3D0002BD1D128F011081FFA88F69B4688
:10273800984640F2064116EA010203921EBF0022A3
:102748000BF1010B039228E028F010081FFA88F813
:102758000A2218F0800F45D018F4007F1BBF0734F9
:1027680024F0070454F8040B54F8080B002844D14B
:1027780028F0160618F0400FB6B242D0002B40D110
:1027880028F017081FFA88F6984616F010020392E8
:1027980049D0002F45D108F1010B31075CD4F2076D
:1027A80006D5DA4572DDAAEB0B0202EB0803D34625
:1027B8005A464BE048F0100810227827C9E7782AD3
:1027C80004D1C7F1780242F01002C2E7019B4946E2
:1027D800252098470028FFF657AF02355BE6082208
:1027E8000027B6E718F4807F54F8040BBED018F41D
:1027F800007F14BFC0B280B2B8E728F006081FFAFD
:1028080088F603930DF11C0863E726F01106B6B2AB
:102818009B468EE70E46B8E71A460E4602F1020BB3
:10282800BBE74246FAE7C34683E700BF4F3A0008D2
:10283800483A0008CDE904324946019B20209847D0
:102848000028FFF621AF059A049B01329245F1DC7E
:10285800A5EB0B018D189346039A1AB303934946C7
:10286800019B302098470028FFF60EAF039B7FB9E5
:1028780001355E19711B414526DC464607AF66BB2C
:10288800A844AAEB0B0A4546C24437E043468FE703
:102898000393023549463846019B98470028039B15
:1028A800E7DAF1E640F206410E42E2D016F0020FF6
:1028B80014BF2B20202016F4806F039305F1010527
:1028C800494618BF2D20E7E7019B49463020984725
:1028D800002805F10105CDDAD6E6013E019BB85D79
:1028E800494698470028CADACEE6019B4946202087
:1028F8009847002805F10105FFF6C6AEAAEB0503C7
:10290800002BF2DCCEE500BF7047002070470FB403
:1029180007B504A951F8040B0191FDF7B5FD03B003
:102928005DF804EB04B0704700EBC1004088400834
:102938007047F8B50346FFF7F7FFB0FA80F0C0F12B
:102948001F0003EB800CCA00DCF81060171D0C4652
:1029580006328DB256B9012101FA00F0D968014357
:10296800D960CCF81040DD539D52F8BDF100043118
:10297800585AD85303EBC0009E52C5805D52F4E705
:10298800043A2DE9F041CC1D114424F0070421F04C
:1029980007010E1BF708B7FA87F2C2F12405AD004C
:1029A8004FF000080735C2F12002ED0804604146E7
:1029B800A760C4F80C80920004F1100000F05BFCE2
:1029C8006B0043F00103638004EBC5027B1B5900D5
:1029D800A4F800805180A21924F83550A2F802808A
:1029E800A35304EBC70329465A8842F001025A80D0
:1029F8002046BDE8F041FFF79CBF7047FEF75CBF7B
:102A080001460068FEF758BF08B5FDF793FDBDE81D
:102A18000840FDF7C1BD00210120FFF7EFBF2028C6
:102A280009D9B0F1004F08D80138B0FA80F0C0F1E8
:102A38001F0040007047082070473E2070472DE96E
:102A4800FF410E469846144605460027B74220DA4D
:102A58006868C8B1B8F1000F07D0431E184216D1F4
:102A68001F2814D92A68134211D12B680193FFF744
:102A7800D6FFAB6803430393E3B2072B07D820467E
:102A880001A9FEF75DF8013401370C35DEE76FF078
:102A98001504204604B0BDE8F08108B5FEF72EF90C
:102AA800002008BD08B5062201210020FEF772F9B2
:102AB800002211460620FDF775FF0121084607226E
:102AC800FEF768F9002211460720FDF76BFF082280
:102AD80001210220FEF75EF9002211460820FDF7C9
:102AE80061FF092201210320FEF754F90022114653
:102AF8000920FDF757FF0A2201210420FEF74AF9B1
:102B0800002211460A20FDF74DFF0521084617222D
:102B1800FEF740F9002211461720FDF743FF28224F
:102B280006210A20FEF736F9002211462820FDF773
:102B380039FF002008BD0B68A3F13002782A9FBF37
:102B480003F1804303F50E3349681A689DBF0A43B1
:102B580000201A606FF0850070470B68A3F13002FF
:102B6800782A9FBF03F1804303F50E3349681A683A
:102B78009DBF8A4300201A606FF0850070470B687C
:102B8800A3F13002782A0AD803F1804303F50E3303
:102B98001A684B68934314BF012002207047022B28
:102BA80004D8002B14BF022001207047053B012BDD
:102BB8008CBF01200220704710B50B68022B03D888
:102BC8002BB96FF0850023E0053B012BF9D84A6843
:102BD800FF2A1CD0D3B203F1804303F50E33C2F3AE
:102BE80042341868C2F3042204FA02F220EA02020C
:102BF8001A604968CBB203F1804303F50E33C1F381
:102C080002421868C1F304218A4002431A60002076
:102C180010BD43685B681B690B6000207047436800
:102C28005B68586942400A4042405A610020704738
:102C380043685B6800209961704743685B680904D2
:102C480099610020704743685A6853694B40536143
:102C58000020704710B503699868F8B1884219D107
:102C6800DC6808689860A14200D1D860002008603C
:102C78002AB19A680A60DA68996002B9D9600020B6
:102C880010E0814206D108682060D8688142EDD101
:102C9800DC60EBE7044600680028F2D1002AE8D19E
:102CA8006FF0150010BDF0B54468012067688840D2
:102CB8001E46C2F3801327EA00078B403B4363603C
:102CC80090FAA0F7B7FA87F7D4F808C04FF0030EC8
:102CD8007F000EFA07F72CEA070C90FAA0F7B7FA6C
:102CE80087F7C2F3C1137F00BB4043EA0C03A3601C
:102CF80090FAA0F3B3FA83F3E7685B000EFA03F3E4
:102D080027EA030790FAA0F3B3FA83F302F0300539
:102D18005B00C2F341229A403A43202DE26016D16B
:102D280007292BDC90FAA0F3226A2BB3B3FA83F3BA
:102D38009B000F2101FA03F322EA030290FAA0F3A1
:102D4800B3FA83F39B0006FA03F31343236290FA62
:102D5800A0F3B3FA83F3226890FAA0F05B00032192
:102D6800B0FA80F02D0901FA03F3400022EA0303C8
:102D780085401D432560F0BD2B46D9E7030A616AEB
:102D880093FAA3F282B1B2FA82F292000F2793FA71
:102D9800A3F3B3FA83F307FA02F29B0021EA0202D3
:102DA8009E4016436662D2E72A46EEE738B50446E7
:102DB80090030D46134617D591070ED55A072ED501
:102DC8005022D8060BD542F4007219031AD561684F
:102DD80001234968AB408B610DE01022F1E79906A9
:102DE800F3D542F48062F0E7DA0313D5D80613D49A
:102DF800C3F340139A02606800232946FFF753FF84
:102E0800002038BD5B03F6D50121A9402046FFF715
:102E180014FFF0E73022EEE74FF40072EBE76FF0B3
:102E28008500EEE770B50B46896821B101255E681B
:102E38000C68854001B970BD8A682A4002D04B6889
:102E4800304698471CB1236821461C46F2E72346C2
:102E5800FAE7F8B51F46044640680E461546FFF7E0
:102E680022FF112F07D101212B0501FA06F104D504
:102E780063685B6899610020F8BD2046FFF7DDFEB6
:102E8800F9E730B5036813600579046804EBC504F5
:102E9800A34202D36FF0010030BD5C798C4201D0AF
:102EA8000833F0E70020F7E74368C1F34B101B68CD
:102EB80001F01F01C05801238B40034214BF0123B6
:102EC800002313700020704710B54368C1F34B10FE
:102ED8001A6801F01F01845801238B402343835053
:102EE800002010BD10B54368C1F34B14186801F0F9
:102EF8001F01235801228A4023EA0203235000209D
:102F080010BD38B504460D46FFF7DEFF29462046BA
:102F1800FFF7E8FF002038BD82B003680193019BEA
:102F280043680193019B02B0704708B541680B687C
:102F38001A681868C0071868C2F3C00248BF42F090
:102F480002028007186848BF42F004024007186868
:102F580048BF42F02002C00542BF6FF4807042F0C3
:102F680008021860D00702D50868FFF7D5FF930755
:102F780002D50868FFF7D0FF500702D50868FFF7A9
:102F8800CBFF930602D50868FFF7C6FF104608BDB9
:102F980037B50369446818688368DB680D46E168DB
:102FA800F3B101AA984700281ADB22680198D36870
:102FB800192123F40043D360A0FB0101AA00AB0F41
:102FC800FDF7DEF86422B0FBF2F102FB11031B01EE
:102FD80024683233B3FBF2F303EB01139BB2A36013
:102FE80003B030BD10B54068026813681B06FCD5F5
:102FF8004FF01002EFF3118382F31288BFF36F8F43
:1030080002681468240604D483F31188BFF36F8F11
:10301800EAE7516083F31188BFF36F8F10BD08B5DD
:103028004368186803681A0701D5FFF775FF036836
:103038009B0643BF43680B7000204FF0FF3008BD6C
:1030480003695B681B680B6043681B68DB6803F4F3
:10305800C063B3F5806F2FD0A3F5C06CDCF100031B
:1030680043EB0C030B7143681B681B6903F4405363
:10307800B3F5805F22D0B3F5405F21D0002B0CBFA1
:10308800012303234B7143681B68DA68DB68D204A9
:1030980003F4C06316D5002B14BF032304238B71DC
:1030A80043681B685B6903F44073A3F5407253429D
:1030B8005341CB71002070470223D3E70023E1E797
:1030C8000223DFE7002B14BF02230323E7E770473F
:1030D80040B1C368587810F001001EBF1878B0FAE4
:1030E80080F0400970474FF01002EFF3118382F32C
:1030F8001288BFF36F8FFEE708B5FFF7F4FF00F003
:10310800BAB800F0AAB808B54FF01002EFF311836F
:1031180082F31288BFF36F8FFDF7D4FCF4E7D0E990
:10312800003213605A600023C0E90033704708B5C5
:10313800FFF7F5FF437B23F002034373002383600B
:1031480008BD10B54FF01003EFF3118483F3128814
:10315800BFF36F8FFEF708FE84F31188BFF36F8FFC
:1031680010BD38B504464FF01003EFF3118583F313
:103178001288BFF36F8F437B13F0280F0BD183683E
:103188000BB1FFF7D4FF637B51B903F0FB03637303
:103198002046FEF7E9FD85F31188BFF36F8F38BD30
:1031A80003F0EB03F3E701211838FFF7DABF034612
:1031B80020B9EFF305820AB9FDF78ABB83F31188BA
:1031C800BFF36F8F70474FF01003EFF3118083F355
:1031D8001288BFF36F8FFFF7EABF10B54FF01002E8
:1031E800EFF3118482F31288BFF36F8F03683BB14A
:1031F800FFF720F8002084F31188BFF36F8F10BD0C
:103208006FF01500F7E708B5FFF710F908BD10B51E
:10321800024601448A42134603D01C780132002C2E
:10322800F8D1181A10BDF0B5C2F137050446EDB251
:1032380002F01F020846B4FBF2F602FB1641CBB2BD
:10324800092988BF5B19274688BFDBB23033BA42E9
:1032580000F8013B3446EED9F0BD0A44914200F132
:10326800FF3300D1704710B511F8014B03F8014F37
:103278009142F9D110BD02440346934200D17047F0
:1032880003F8011BF9E700000148006870470000D7
:04329800B801002059
:08329C0020CFFF7F01000000BC
:1032A400F504000800000000110F00083C3300087A
:1032B4001D05000800000000000000005033000855
:1032C400C510000818340008C5100008DC330008D5
:1032D400AD2A000864330008C5100008043400084F
:1032E400C5100008F0330008C5100008C8330008F2
:1032F400C5100008B4330008C5100008A033000846
:10330400C51000088C330008C51000087833000885
:10331400BD1400082C340008BD1400084034000813
:103324007510000800000000B91500080000000036
:083334002D0D0008000000004F
:10333C004839000800000000140000206E00002036
:10334C0000000000D33900081C38000820380008A1
:10335C0082000020000000002A3900080000000054
:10336C00000000006C000020D80100205539000836
:10337C0018370008CC3700087000002058020020D5
:10338C00633900082C370008CC3700087200002085
:10339C00680200207139000840370008CC3700085B
:1033AC0074000020780200207F3900085437000890
:1033BC00CC37000876000020880200208D390008E8
:1033CC0068370008CC3700087800002098020020ED
:1033DC009B3900087C370008CC3700087A000020A5
:1033EC00A8020020A939000890370008CC37000843
:1033FC007C000020B8020020B7390008A437000870
:10340C00CC3700087E000020C8020020C539000817
:10341C00B8370008CC37000880000020D802002004
:10342C00E439000830380008C03800088400002057
:10343C0030000020F439000878380008C038000843
:08344C00860000204000002072
:10345400000000001F2A0008000000001F2A0008C6
:10346400000000001F2A0008000000001F2A0008B6
:10347400000000001F2A0008000000001F2A0008A6
:1034840028390008510D000826390008510D00089C
:1034940024390008510D000822390008510D000894
:1034A40020390008510D0008000000001F2A000800
:1034B400000000001F2A0008000000001F2A000866
:1034C400000000001F2A0008000000001F2A000856
:1034D400000000001F2A0008000000001F2A000846
:1034E400000000001F2A0008000000001F2A000836
:1034F400000000001F2A0008000000001F2A000826
:10350400000000001F2A00081E390008510D0008A1
:10351400000000001F2A0008000000001F2A000805
:10352400000000001F2A0008000000001F2A0008F5
:10353400000000001F2A0008000000001F2A0008E5
:10354400000000001F2A0008000000001F2A0008D5
:10355400000000001F2A0008000000001F2A0008C5
:10356400000000001F2A0008000000001F2A0008B5
:10357400000000001F2A0008000000001F2A0008A5
:10358400000000001F2A0008000000001F2A000895
:103594001C390008510D0008000000001F2A000813
:1035A400000000001F2A0008000000001F2A000875
:1035B400000000001F2A0008000000001F2A000865
:1035C400000000001F2A0008000000001F2A000855
:1035D400000000001F2A0008000000001F2A000845
:1035E400000000001F2A0008000000001F2A000835
:1035F400000000001F2A0008000000001F2A000825
:10360400000000001F2A0008000000001F2A000814
:10361400000000001F2A0008000000001F2A000804
:10362400000000001F2A0008000000001F2A0008F4
:10363400000000001F2A0008000000001F2A0008E4
:10364400000000001F2A0008000000001F2A0008D4
:10365400000000001F2A0008000000001F2A0008C4
:10366400000000001F2A0008000000001F2A0008B4
:10367400000000001F2A0008000000001F2A0008A4
:10368400000000001F2A0008000000001F2A000894
:10369400000000001F2A0008000000001F2A000884
:1036A400000000001F2A0008000000001F2A000874
:1036B400000000001F2A0008000000001F2A000864
:1036C400000000001F2A0008000000001F2A000854
:1036D400000000001F2A0008000000001F2A000844
:1036E4004400000000400000000000200000000032
:1036F40000000B060200000000370008000000086C
:103704000D390008260002070000002015390008C2
:1037140020000B11FFFF0000002002400800000001
:103724003000000000010000FFFF0000001C024008
:10373400070000003000000080000000FFFF0000D0
:1037440000180240060000003000000040000000A5
:10375400FFFF0000001402400500000030000000DC
:1037640020000000FFFF00000010024004000000E1
:103774003000000010000000FFFF0000000C0240B9
:10378400030000003000000008000000FFFF0000FC
:1037940000080240020000003000000004000000A5
:1037A400FFFF0000000402400100000030000000A0
:1037B40002000000FFFF00000000024000000000C3
:1037C4003000000001000000B52D00081B2C00088B
:1037D400272C0008392C0008432C00084F2C000823
:1037E400F51000085D2C00080000000018340008E3
:1037F40004340008F0330008DC330008C833000840
:10380400B4330008A03300088C3300087833000870
:10381400000000000000000000380240B12E000843
:10382400D12E0008ED2E00080B2F000800440040A4
:103834005033000811040000503800080100000053
:10384400000000000000000058380008400000009C
:103854000000020060380008010000006838000819
:1038640002000000470000000002000067000000A2
:1038740000000000001001405033000884040000E0
:10388400983800080100000000000000000000005B
:10389400A03800084400000010000000A838000808
:1038A40001000000B038000802000000C702000058
:1038B40000020000E70200000000000027300008BA
:1038C400ED2F0008332F0008751300084930000855
:1038D400F5FFFFFFA4320008A43200082C330008CF
:1038E400343300083C3300083C3300080010000067
:1038F400003048656C6C6F2066726F6D2053544DB8
:10390400333246343037210A00464C4153485F3045
:10391400005352414D5F30000A06050504010301BE
:10392400020101010001696E746572727570742D73
:10393400636F6E74726F6C6C657240343030313307
:1039440063303000726363403430303233383030A7
:10395400006770696F403430303232303030006785
:1039640070696F40343030323163303000677069D1
:103974006F403430303231383030006770696F4016
:103984003430303231343030006770696F40343055
:10399400303231303030006770696F40343030324B
:1039A40030633030006770696F4034303032303803
:1039B4003030006770696F4034303032303430302A
:1039C400006770696F40343030323030303000720C
:1039D400657365742D636F6E74726F6C6C657200C1
:1039E40073657269616C4034303030343430300087
:1039F40073657269616C403430303131303030007D
:103A0400000000000000000001020304060708098A
:103A14006D61696E002A2A2A20426F6F74696E678D
:103A2400205A6570687972204F53206275696C64FE
:103A3400207A65706879722D76332E352E30202ADF
:103A44002A2A0A00286E756C6C29002A666C6F613C
:043A5400742A0000D0
:103A58001329000800000000A32A00080000000045
:103A6800000000003F2B0008632B00080000000046
:103A7800950E0008872B000800000000C12B0008E5
:103A8800000000003800002000C20100000103000F
:103A9800000000004800002000C2010000010300EF
:103AA8000024F4005400002054000020FFFFFFFF12
:0C3AB800FFFFFFFFFFFFFFFFFFFFFFFF0E
:103AC40000000000000000000000000000000000F2
:0C3AD400000000000000000000000000E6
:043AE00015E015E0F8
:040000050800088166
:00000001FF
